S00B00007A61642E73726563DA
S11300000C9434000C943E000C943E000C943E007E
S11300100C943E000C943E000C943E000C943E0064
S11300200C943E000C943E000C943E000C943E0054
S11300300C943E000C943E000C943E000C943E0044
S11300400C943E000C943E000C943E000C943E0034
S11300500C943E000C943E000C943E000C943E0024
S11300600C943E000C943E0011241FBECFEFD8E048
S1130070DEBFCDBF0E9440000C947B000C940000B6
S1130080CF93DF93CDB7DEB72A970FB6F894DEBFD0
S11300900FBECDBF8091C100877E8093C1008AB11D
S11300A08FEF8AB98FE3898386E08A838BE58B831C
S11300B08FE48C8386E68D838DE68E838DE78F8334
S11300C087E088878FE789878FE68A879E01255F87
S11300D03F4FFE013196819180958BB94FEF83EDAF
S11300E090E3415080409040E1F700C00000E217E7
S10D00F0F30789F7EECFF894FFCF71
S9030000FC
