:100000000C9434000C9451000C9451000C94510049
:100010000C9451000C9451000C9451000C9451001C
:100020000C9451000C9451000C9451000C944B13FF
:100030000C9451000C9451000C9451000C945100FC
:100040000C9451000C9451000C9451000C945100EC
:100050000C9451000C94DE000C9451000C9451004F
:100060000C9451000C94510011241FBECFEFD8E026
:10007000DEBFCDBF11E0A0E0B1E0E0E0F9E202C0F8
:1000800005900D92A432B107D9F727E0A4E2B1E0C0
:1000900001C01D92AF3AB207E1F70E9479130C94A8
:1000A0007E140C94000080E480937C0087E08093B1
:1000B0007E00EAE7F0E08083808188608083808131
:1000C000806880830895806480937C00EAE7F0E094
:1000D0008081806480836FEF7FEF8091A50790918E
:1000E000A6070E94B70C809178009091790008953E
:1000F000CF93DF9300D000D01F92CDB7DEB78C0135
:100100000E94681380E091E09093AE078093AD0762
:100110009093AC078093AB079093AA078093A907AD
:10012000B02E7801FF2484E6089F80011124085432
:10013000144F80E3E80EF11C6FEF7FEF8091A7076B
:100140009091A8070E94B70C8B2D0E9463006C0150
:100150006091AB077091AC0781E490E00E940214BB
:100160006091AB077091AC07C7010E9402144AE08E
:1001700050E0BE016F5F7F4FC6010E94DD136091AA
:10018000AB077091AC078AE390E00E940214CE01A5
:1001900001960E943E148EE091E00E943E1420E001
:1001A00040E050E060E070E08091A7079091A807E0
:1001B0000E94230BC8010E943705BECF1F920F92E9
:1001C0000FB60F9211242F933F934F935F936F932A
:1001D0007F938F939F93AF93BF93EF93FF9360E0D1
:1001E00070E08091A5079091A6070E94020CFF91F4
:1001F000EF91BF91AF919F918F917F916F915F919F
:100200004F913F912F910F900FBE0F901F90189517
:100210000895E0915301F09154018081811103C050
:100220008FEF9FEF0CC0E0915301F09154010580D6
:10023000F681E02D0680F781E02D828193819093F5
:100240002B0180932A010895FF920F931F93CF9360
:10025000DF93EC01F62E0091320110913301809171
:1002600025019091260102960E94BE0FCF3F8FEF8D
:10027000D80789F4FF2079F060912501709126015B
:100280006E5F7F4F85E391E0DF91CF911F910F91DA
:10029000FF900C94650FC00FD11FE0912501F091E4
:1002A0002601D383C2836091250170912601C01776
:1002B000D10768F480915101909152016E5F7F4F98
:1002C000DF91CF911F910F91FF900C94860F809139
:1002D0005301909154016E5F7F4F0E94860F809171
:1002E0002A0190912B01C817D90720F4D0932B0134
:1002F000C0932A01DF91CF911F910F91FF90089534
:1003000080913E01882309F10FB6F8940F92E09195
:100310004401F0914501C681D781CE0102960E9429
:10032000BE0F8091340181508093340180913E0151
:10033000815080933E010F900FBE8F89988D0E944F
:10034000DA11CE010E94DA11DBCF80916701823091
:1003500010F00E9496120E940801D2CF3F924F9255
:100360005F926F927F928F929F92AF92BF92CF9245
:10037000DF92EF92FF920F931F93CF93DF934C0185
:10038000162F372E6A015901CA010E94A8112C01AB
:10039000892B09F4D3C088E290E00E94A811EC01F7
:1003A000892B79F0588E4F8AC60101973201680E69
:1003B000791EBE01675E7F4FE12FF32DCF010896B6
:1003C00007C0C2010E94DA11B9C0E817F90749F065
:1003D0009F014191DB014D93BD01D9012C91211168
:1003E000F4CF18A2043008F003E00E8B09A31AA280
:1003F0006E01B2E0CB0ED11CC6010E94610FCE018E
:100400000C960E94610FD987C88784E090E0801B1A
:1004100091099D878C87DB8BCA8B1BA21CA21DA216
:100420001EA21FA2A501B401C3010E94E911998374
:100430008883E114F10419F0F701D183C0830FB66A
:10044000F8940F92809134018F5F809334018091F2
:10045000250190912601892BD1F5D0932601C093D7
:10046000250180913401813009F041C087E691E097
:100470000E94530F80E791E00E94530F89E791E0BB
:100480000E94530F82E891E00E94530F8EE591E0A5
:100490000E94530F85E591E00E94530F88E491E09C
:1004A0000E94530F8FE391E00E94530F85E391E088
:1004B0000E94530F8EE591E0909354018093530175
:1004C00085E591E0909352018093510110C0809195
:1004D000300181110CC0E0912501F091260196892F
:1004E0008E89891720F0D0932601C0932501809131
:1004F0002C018F5F80932C018E8990913101981788
:1005000010F480933101F9E08F9FC0011124B601EE
:1005100089599E4F0E94650F0F900FBE8091300148
:10052000882351F0E0912501F091260196898E896A
:10053000981710F40E94961281E001C08FEFDF91AE
:10054000CF911F910F91FF90EF90DF90CF90BF90D0
:10055000AF909F908F907F906F905F904F903F9063
:1005600008950F931F93CF93DF93EC010FB6F89488
:100570000F92892B21F4C0912501D09126018E0183
:100580000E5F1F4FC8010E94BE0F8C899D89892B69
:1005900021F0CE010C960E94BE0F80912C018F5F3E
:1005A00080932C018091250190912601C817D907CD
:1005B00059F4B8018FE391E00E94650F80913E01EC
:1005C0008F5F80933E010EC08091340181508093F3
:1005D00034018F89988D0E94DA11CE010E94DA11C0
:1005E0000E9409010F900FBE80913001882349F0CD
:1005F0008091250190912601C817D90711F40E9416
:100600009612DF91CF911F910F9108950F931F9331
:10061000CF93DF9320912501309126018217930714
:10062000B9F10097A9F10FB6F8940F92FC01228559
:1006300033852553314051F5FC0124893589F1E09A
:1006400028343F0719F1232B09F5EC018C010E5FCB
:100650001F4FC8010E94BE0F8E89909131019817DB
:1006600010F48093310129E0829FC0011124B80168
:1006700089599E4F0E94650FE0912501F091260156
:100680009E898689981710F00E9496120F900FBECF
:10069000DF91CF911F910F910895EF92FF921F93D9
:1006A000CF93DF93EC018A859B858553914099F424
:1006B0008C899D8921E08834920769F0892B59F44F
:1006C00080912701882349F0BE01645F7F4F88E451
:1006D00091E00E94650F10E021C0E0912501F091AA
:1006E000260111E09E898689981708F410E07E01A2
:1006F00082E0E80EF11CC7010E94BE0F8E89909126
:100700003101981710F48093310129E0829FC001D4
:100710001124B70189599E4F0E94650F812FDF91E7
:10072000CF911F91FF90EF900895EF92FF920F935A
:1007300088E2E82E81E0F82E00E020E030E045E598
:1007400050E06FE171E080E891E00E94AE018130FD
:1007500091F4F8942FEF3FEF30932B0120932A016F
:100760008093300110923301109232010F91FF906B
:10077000EF900C9455120F91FF90EF900895F8941C
:10078000109230010C949512809127018F5F809315
:10079000270108950FB6F8940F928091320190913D
:1007A00033010F900FBE0895809132019091330173
:1007B0000895809134010895009721F480912501D6
:1007C0009091260149960895CF92DF92EF92FF9281
:1007D0000F931F93CF93DF938091270181118CC0DA
:1007E00000913201109133010F5F1F4F10933301BD
:1007F0000093320101151105B9F4809153019091D4
:1008000054012091510130915201309354012093B1
:100810005301909352018093510180912D018F5F7C
:1008200080932D010E94090180912A0190912B0152
:10083000C0E00817190708F44FC0D9E0E091530150
:10084000F09154018081811103C08FEF9FEF11C09F
:10085000E0915301F09154010580F681E02DE6808E
:10086000F780D70112968D919C911397081719075D
:1008700028F490932B0180932A012EC06701B2E0E7
:10088000CB0ED11CC6010E94BE0FF7018489958949
:10089000892B21F0C7010C960E94BE0FD7015696F6
:1008A0008C9190913101981710F480933101D89F69
:1008B000C0011124B60189599E4F0E94650FE09135
:1008C0002501F0912601D70156969C9186899817AB
:1008D00008F4B4CFC1E0B2CFE0912501F091260138
:1008E000E689B9E0EB9FF0011124E959FE4F8081C0
:1008F000823040F0C1E006C080912F018F5F80936D
:100900002F01C0E080912E018111C1E08C2FDF9179
:10091000CF911F910F91FF90EF90DF90CF900895AE
:10092000EF92FF920F931F93CF93DF930FB6F8943C
:100930000F92809127018150809327018091270198
:10094000882311F080E052C0809134018823D1F3D4
:10095000C0E0D0E089E0F82EEE24E39480914801D5
:10096000882351F1E0914D01F0914E01C681D7816C
:10097000CE010C960E94BE0F8E010E5F1F4FC80164
:100980000E94BE0F8E8990913101981710F48093C8
:100990003101F89EC0011124B80189599E4F0E946F
:1009A000650FE0912501F09126019E8986899817AF
:1009B000A8F2E0922E01D2CFCD2B11F00E940901B6
:1009C000C0912F01CC2351F0D1E00E94E4038111AA
:1009D000D0932E01C150C9F710922F0180912E01A2
:1009E000882309F4AFCF0E94961281E00F900FBECA
:1009F000DF91CF911F910F91FF90EF9008950F938A
:100A00001F93CF93DF938C01EB010E94C4034091AD
:100A1000320150913301F80120813181C9018C0FDD
:100A20009D1F4217530720F48217930740F403C019
:100A30008217930730F021E04817590718F020E09B
:100A400001C021E0F80191838083222329F060E036
:100A5000841B950B0E9424010E949004811102C006
:100A60000E949612DF91CF911F910F910895CF931D
:100A7000DF93EC01892B19F40E9496120AC00E94A0
:100A8000C40360E0CE010E9424010E9490048823E8
:100A900099F3DF91CF91089580912701882321F068
:100AA00081E080932E01089510922E0180913101F2
:100AB00069E0482F50E0649F9001659F300D11243C
:100AC000F901E959FE4F9081911102C08150F1CF97
:100AD000A181B28112960D90BC91A02DB283A18309
:100AE00026593E4FA217B30731F412962D913C912F
:100AF00013973283218399E0949FF001959FF00D25
:100B00001124E959FE4F0180F281E02D26813781C1
:100B100030932601209325018093310108950F938E
:100B20001F93CF93DF93EC010FB6F8940F92892BAC
:100B300021F4C0912501D09126018E010E5F1F4F37
:100B4000C8010E94BE0F8C899D89892B21F0CE019E
:100B50000C960E94BE0FB80185E391E00E94650FDC
:100B60008FA1813009F41FA20F900FBE8091300138
:100B7000882339F00FB6F8940F920E9409010F9064
:100B80000FBE8091250190912601C817D907C1F4A5
:100B900080913001882319F00E94961211C0909123
:100BA000350180913401981305C0109226011092EE
:100BB000250106C0DF91CF911F910F910C944C0538
:100BC000DF91CF911F910F910895CF93DF93EB01A8
:100BD0006091250170912601645F7F4F0E94860F0E
:100BE00061E0CE01DF91CF910C942401CF93DF938C
:100BF000EA01E0912501F09126017068758764870C
:100C00006091250170912601645F7F4F0E94650FFE
:100C100061E0CE01DF91CF910C9424010F931F93DB
:100C2000CF93DF93DC011596ED91FC911697C68169
:100C3000D7818E01045F1F4FC8010E94BE0F8091B3
:100C40002701811114C00A501109C8010E94BE0F6A
:100C50008E8990913101981710F480933101B9E099
:100C60008B9FC0011124B80189599E4F03C0B80160
:100C700088E491E00E94650FE0912501F091260142
:100C80009E898689891720F481E080932E0101C016
:100C900080E0DF91CF911F910F9108950F931F93E3
:100CA000CF93DF937068FC0171836083C681D78125
:100CB0000E94BE0F8E010E5F1F4FC8010E94BE0F23
:100CC0008E8990913101981710F480933101F9E0E9
:100CD0008F9FC0011124B80189599E4F0E94650F52
:100CE000E0912501F09126019E898689891718F4E3
:100CF00081E080932E01DF91CF911F910F91089594
:100D00000FB6F8940F9220912D01FC0120832091C1
:100D1000320130913301328321830F900FBE089549
:100D200020912D01FC01208320913201309133016B
:100D3000328321830895CF93DF930FB6F8940F92F7
:100D40004091320150913301DB012D913C912F3FB5
:100D5000BFEF3B07D9F0EC01E981FA81A0912D01A9
:100D6000B881BA1719F04E175F0790F44E1B5F0B4E
:100D7000FB014217530738F4241B350B31832083C2
:100D80000E94900603C01182108202C080E001C060
:100D900081E00F900FBEDF91CF91089581E08093A5
:100DA0002E010895809125019091260108950F93B9
:100DB0001F93CF93DF93FC01892B09F455C08689DB
:100DC000A0912501B091260156969C91891708F0B3
:100DD00041C02485358537FD0CC0A0912501B09117
:100DE000260156969C9124E030E0291B3109358775
:100DF000248729E0829FC001112489599E4F2285B2
:100E0000338528173907E9F48F01EF012296CE01C7
:100E10000E94BE0FE0912501F09126018689F8011C
:100E2000868B90913101981710F480933101F9E08D
:100E30008F9FC0011124BE0189599E4F0E94650FEA
:100E400007C0A0912501B091260156968C91868B02
:100E500081E00BC0A0912501B091260181E021A184
:100E600056969C91291708F080E0DF91CF911F9151
:100E70000F9108950F931F93CF93DF93FC01892B5C
:100E800011F480E02CC082A1815082A3268991A117
:100E90002917B9F38111F5CFEF018F010E5F1F4FB5
:100EA000C8010E94BE0F89A18E8B482F50E024E01C
:100EB00030E0241B350B3D872C879091310198172A
:100EC00010F48093310129E0249FC001259F900DEB
:100ED0001124B80189599E4F0E94650F81E0DF916E
:100EE000CF911F910F9108950F931F93CF93DF938D
:100EF000FC01892BD9F191A1961708F4962F8689C8
:100F00008917A1F122A1213089F5968B2485358599
:100F100037FD06C024E030E0291B310935872487DE
:100F200029E0829FC001112489599E4F2285338573
:100F300028173907D9F4EF018F010E5F1F4FC80141
:100F40000E94BE0F8E8990913101981710F4809302
:100F5000310129E0829FC0011124B80189599E4FB7
:100F6000DF91CF911F910F910C94650FDF91CF917D
:100F70001F910F910895E0912501F091260184853C
:100F80009585E0912501F0912601A0912501B09170
:100F9000260156964C9124E030E0241B3109358718
:100FA000248708958091250190912601892B39F09D
:100FB000E0912501F091260182A18F5F82A38091AB
:100FC00025019091260108950F931F93182FCB01AF
:100FD0000FB6F8940F92E0912501F091260143A1FC
:100FE00054A165A176A1452B462B472B69F4E091CE
:100FF0002501F091260121E027A3009729F061E067
:101000000E9424010E9496120F900FBE0FB6F89412
:101010000F92E0912501F091260163A174A185A1B1
:1010200096A16115710581059105A9F0E091250151
:10103000F0912601112329F013A214A215A216A2E1
:101040000AC08B019C01015011092109310903A338
:1010500014A325A336A3E0912501F091260117A240
:101060000F900FBE1F910F9108954F925F926F9254
:101070007F928F929F92AF92BF92EF92FF920F93C7
:101080001F9349015A010FB6F8940F92E091250180
:10109000F091260127A1223039F1E0912501F0914C
:1010A000260123A134A145A156A12B013C01409466
:1010B000509460947094D301C20182239323A4239B
:1010C000B52383A394A3A5A3B6A3E0912501F09132
:1010D000260181E087A3E114F10431F061E0C7014A
:1010E0000E9424010E9496120F900FBE0FB6F89432
:1010F0000F920115110569F0E0912501F09126018B
:1011000083A194A1A5A1B6A1F80180839183A283B4
:10111000B383E0912501F091260187A18230C1F4CB
:10112000E0912501F091260143A154A165A176A18A
:10113000D501C40180959095A095B0958423952301
:10114000A623B72383A394A3A5A3B6A381E001C0DC
:1011500080E0E0912501F091260117A20F900FBECB
:101160001F910F91FF90EF90BF90AF909F908F9045
:101170007F906F905F904F9008950F931F93CF9340
:10118000DF93FC010FB6F8940F920115110549F099
:1011900083A194A1A5A1B6A1E80188839983AA831C
:1011A000BB8337A182E087A3223089F058F4213035
:1011B00001F583A194A1A5A1B6A1482B592B6A2BB7
:1011C0007B2B13C0233089F0243069F012C083A137
:1011D00094A1A5A1B6A10196A11DB11D83A394A3BD
:1011E000A5A3B6A306C0323049F143A354A365A317
:1011F00076A3313009F5EF018F010E5F1F4FC80153
:101200000E94BE0F8E8990913101981710F480933F
:10121000310129E0829FC0011124B80189599E4FF4
:101220000E94650FE0912501F09126019E89868933
:10123000891710F40E94961281E001C080E00F909F
:101240000FBEDF91CF911F910F910895EF92FF9202
:101250000F931F93CF93DF93FC010115110549F004
:1012600083A194A1A5A1B6A1E80188839983AA834B
:10127000BB8337A182E087A3223089F058F4213064
:1012800001F583A194A1A5A1B6A1482B592B6A2BE6
:101290007B2B13C0233089F0243069F012C083A166
:1012A00094A1A5A1B6A10196A11DB11D83A394A3EC
:1012B000A5A3B6A306C03230D9F143A354A365A3B6
:1012C00076A3313011F081E034C0EF018091270125
:1012D000811115C08F010E5F1F4FC8010E94BE0F04
:1012E0008E8990913101981710F480933101E9E0D3
:1012F0008E9FC0011124B80189599E4F05C0BF01BE
:10130000645F7F4F88E491E00E94650FE0912501C2
:10131000F09126019E8986898917A8F6E114F104C7
:1013200019F081E0E701888381E080932E0101C0FC
:1013300080E0DF91CF911F910F91FF90EF90089582
:10134000EF92FF920F931F93CF93DF93FC0127A19E
:1013500082E087A383A194A1A5A1B6A10196A11DB6
:10136000B11D83A394A3A5A3B6A32130A1F58B013E
:10137000EF0180912701811116C07F0122E0E20E6A
:10138000F11CC7010E94BE0F8E8990913101981700
:1013900010F480933101E9E08E9FC0011124B70160
:1013A00089599E4F05C0BF01645F7F4F88E491E07B
:1013B0000E94650FE0912501F09126019E898689A2
:1013C000891748F40115110519F081E0F8018083AF
:1013D00081E080932E01DF91CF911F910F91FF90BB
:1013E000EF900895009721F48091250190912601B6
:1013F0000FB6F8940F92FC0127A1223019F417A21E
:1014000081E001C080E00F900FBE08950FB6F89400
:101410000F92FC01928D0F900FBE81E0911180E040
:1014200008950F931F93CF93DF93EC01042F1A8D30
:101430004C8D41110BC088819981892BE9F58C81F4
:101440009D810E943A071D821C8237C050E0011125
:1014500015C08A819B810E94D4132C8D8A819B8127
:10146000820F911D9B838A832C813D818217930774
:1014700018F1888199819B838A831EC08E819F8108
:101480000E94D4138C8D90E09195819591092E81C5
:101490003F81280F391F3F832E83488159812417AC
:1014A000350730F42C813D81820F931F9F838E83FB
:1014B000023011F41111115080E01F5F1A8FDF917B
:1014C000CF911F910F910895FC01CB01448D4423CE
:1014D000A1F050E026813781240F351F3783268302
:1014E000648175812617370720F020813181378389
:1014F0002683668177810C94D4130895EF92FF922E
:101500001F93CF93DF93EC010FB6F8940F921E8DCB
:101510007C0181E1E80EF11C11165CF489898823B5
:1015200041F0C7010E940E0681110E94CE061150A3
:10153000F3CF8FEF8E8F0F900FBE0FB6F8940F92F0
:101540001D8D7E0188E0E80EF11C11165CF4888583
:10155000882341F0C7010E940E0681110E94CE0629
:101560001150F3CF8FEF8D8F0F900FBEDF91CF9182
:101570001F91FF90EF900895CF93DF93EC010FB68A
:10158000F8940F92488159818B8D7C8D9A01879FA9
:10159000200D311D11243D832C831A8E5B834A83D9
:1015A00090E00197789F9001799F300D1124CA0136
:1015B000820F931F9F838E838FEF8D8F8E8F61118C
:1015C0000CC08885882389F0CE0108960E940E06FB
:1015D000882359F00E94961208C0CE0108960E94F6
:1015E000530FCE0141960E94530F0F900FBE81E022
:1015F000DF91CF9108950F931F93CF93DF93082F1F
:10160000162F662321F0869FC001112402C080E0BE
:1016100090E04F960E94A811EC01009771F0111113
:1016200003C09983888303C04F96998388830B8F67
:101630001C8F61E0CE010E94BC0ACE01DF91CF91E8
:101640001F910F910895AF92BF92CF92DF92FF92B8
:101650000F931F93CF93DF9300D000D01F92CDB78D
:10166000DEB78C016B015D834C83F22E80E0580164
:1016700098E0A90EB11C0FB6F8940F92F801228DD4
:10168000938D291718F0F2E0FF1214C04F2DB60108
:10169000C8010E94110AF8019189992321F0C8011B
:1016A00041960E940E0681110E9496120F900FBE65
:1016B00081E050C02C813D81232B19F40F900FBE87
:1016C00048C0811104C0CE0101960E9490060F907F
:1016D0000FBE0E94C4030FB6F8940F92F801858DD7
:1016E0008F3F09F4158EF801868D8F3F09F4168E11
:1016F0000F900FBEBE016C5F7F4FCE0101960E941E
:101700009B06811121C00FB6F8940F92F801928DBB
:101710000F900FBE838D981311C06C817D81C50120
:101720000E94E505C8010E947E0A0E949004882359
:1017300011F081E0A0CF0E949612FBCFC8010E9459
:101740007E0A0E949004F5CFC8010E947E0A0E9482
:10175000900480E00F900F900F900F900F90DF910A
:10176000CF911F910F91FF90DF90CF90BF90AF90DE
:101770000895CF93DF93482F60E081E00E94FB0A39
:10178000EC01009761F01D821C82198218821E8272
:1017900020E040E050E060E070E00E94230BCE01CA
:1017A000DF91CF910895EF92FF921F93CF93DF9334
:1017B000EC019A8D8B8D981710F02230E1F47A01AC
:1017C0001E8D422FCE010E94110A1F3F81F489898C
:1017D000882379F0CE0141960E940E06882349F0B5
:1017E000E114F10431F081E0F701808305C01F5F4F
:1017F0001E8F81E001C080E0DF91CF911F91FF90AB
:10180000EF900895CF93DF93FC01928D838D98170D
:10181000C0F4868D9F5F928F8F3F79F481898823F2
:1018200071F0EB01CF0141960E940E06882339F03A
:10183000209729F081E0888305C08F5F868F81E043
:1018400001C080E0DF91CF910895AF92BF92CF9217
:10185000DF92FF920F931F93CF93DF9300D000D0BE
:101860001F92CDB7DEB78C016B015D834C8380E0A6
:10187000580191E1A90EB11C0FB6F8940F92F8012E
:10188000F28CFF20A9F0B601C8010E94640AFA9404
:10189000F801F28E8085882339F0C80108960E94ED
:1018A0000E0681110E9496120F900FBE81E050C06B
:1018B0002C813D81232B19F40F900FBE48C081115C
:1018C00004C0CE0101960E9490060F900FBE0E94A8
:1018D000C4030FB6F8940F92F801858D8F3F09F479
:1018E000158EF801868D8F3F09F4168E0F900FBE6E
:1018F000BE016C5F7F4FCE0101960E949B06811155
:101900001CC0C8010E94060A882389F06C817D8171
:10191000C5010E94E505C8010E947E0A0E9490044C
:10192000882311F081E0A8CF0E949612FBCFC80156
:101930000E947E0A0E949004F5CFC8010E947E0A90
:101940000E949004C8010E94060A882359F380E08F
:101950000F900F900F900F900F90DF91CF911F91EC
:101960000F91FF90DF90CF90BF90AF900895CF92EE
:10197000DF92FF920F931F93CF93DF9300D000D09D
:101980001F92CDB7DEB78C017D836C83F12C90E084
:10199000680181E1C80ED11C0FB6F8940F92D801EE
:1019A0005A968C915A978823E9F081505A968C93D5
:1019B0005A978D919C91892B29F40E94D207F801A6
:1019C00095838483D80118968C91882339F0C801B7
:1019D00008960E940E0681110E9496120F900FBE6B
:1019E00081E07AC02C813D81232B09F472C09111D2
:1019F00004C0CE0101960E9490060F900FBE0E9477
:101A0000C4030FB6F8940F92F801858D8F3F09F447
:101A1000158ED8015E968C915E978F3F11F45E967D
:101A20001C920F900FBEBE016C5F7F4FCE010196DE
:101A30000E949B0681112BC0C8010E94060A8823C0
:101A400001F1F80180819181892B51F40FB6F8944E
:101A50000F92848195810E94D706F82E0F900FBEB9
:101A60006C817D81C6010E94E505C8010E947E0A45
:101A70000E949004882311F091E08ECF0E9496126C
:101A8000FBCFC8010E947E0A0E949004F5CFC801D6
:101A90000E947E0A0E949004C8010E94060A8823C0
:101AA00059F3FF20C1F00FB6F8940F92F801818925
:101AB000882339F00688F789E02D808164E0681B6F
:101AC00001C060E0D80114968D919C9115970E94F9
:101AD00074070F900FBE80E00F900F900F900F9043
:101AE0000F90DF91CF911F910F91FF90DF90CF90DA
:101AF0000895CF92DF92EF92FF920F931F93CF93AF
:101B0000DF9300D000D01F92CDB7DEB78C017B01F0
:101B10005D834C8380E0680191E1C90ED11C0FB652
:101B2000F8940F92F801928D9923B9F0C680D7806E
:101B3000B701C8010E94640AF801D782C682818970
:101B4000882339F0C80141960E940E0681110E9437
:101B500096120F900FBE81E050C02C813D81232B47
:101B600019F40F900FBE48C0811104C0CE01019638
:101B70000E9490060F900FBE0E94C4030FB6F89407
:101B80000F92F801858D8F3F09F4158EF801868D2F
:101B90008F3F09F4168E0F900FBEBE016C5F7F4F12
:101BA000CE0101960E949B0681111CC0C8010E94B3
:101BB000060A882389F06C817D81C6010E94E505B3
:101BC000C8010E947E0A0E949004882311F081E0DF
:101BD000A6CF0E949612FBCFC8010E947E0A0E94E7
:101BE0009004F5CFC8010E947E0A0E949004C801AB
:101BF0000E94060A882359F380E00F900F900F90FF
:101C00000F900F90DF91CF911F910F91FF90EF9068
:101C1000DF90CF900895EF92FF920F931F93CF9391
:101C2000DF93FC01028D0023E9F07A01EC01158DB0
:101C30000E94640A01500A8F1F3F81F4888588231F
:101C400079F0CE0108960E940E06882349F0E1142F
:101C5000F10431F081E0F701808305C01F5F1D8F23
:101C600081E001C080E0DF91CF911F910F91FF9043
:101C7000EF9008950F931F93CF93DF93FC01228D74
:101C8000222349F0EC01068117810E94640A1F8318
:101C90000E8381E001C080E0DF91CF911F910F9111
:101CA00008950FB6F8940F92FC01828D0F900FBE2D
:101CB00008950FB6F8940F92FC01228D0F900FBE7D
:101CC000838D821B0895FC01828D08950C94DA1196
:101CD000FC01928D81E0911180E00895FC01928DCC
:101CE00081E0238D291380E00895CF93DF93EC01E9
:101CF000F8940FB6F8940F928A8D9B8D0F900FBEBB
:101D000089130FC04115510549F0BE01685F7F4F2F
:101D1000CA010E94541078948CEF1BC0789480E024
:101D200018C07894F8948A8D891788F440E0CE0121
:101D30000E94110A8989811102C081E009C0CE0187
:101D400041960E9483118823C1F38BEF01C080E08C
:101D50007894DF91CF910895CF93DF93EC01FB014D
:101D6000F8948A8D81110FC04115510549F0BE01CB
:101D70006F5E7F4FCA010E94541078948CEF30C080
:101D8000789480E02DC07894F8948A8D882331F17E
:101D90004C8D50E02E813F81240F351F3F832E83D1
:101DA0008C819D812817390720F0888199819F8334
:101DB0008E839A8D91509A8F6E817F81CF010E9480
:101DC000D4138885811102C081E009C0CE01089634
:101DD0000E9483118823C1F38BEF01C080E07894C7
:101DE000DF91CF9108950F931F93CF938C01C42F50
:101DF000FC01928D838D981710F04C2F12C040E09B
:101E0000C8010E94110AC111F8CFF8018189882305
:101E100039F0C80141960E94831141E0811101C04F
:101E200040E0842FCF911F910F9108950F931F933E
:101E3000CF93DF93FC01828D882379F1248D30E0EC
:101E4000A681B781A20FB31FB783A6838481958132
:101E5000A817B90720F080819181978386838A0132
:101E6000CB01EF01428D4150428F66817781A901FC
:101E70000E94D413F8018081882311F081E00EC004
:101E800088858823D9F3CE0108960E948311882380
:101E9000A9F381E0F801808301C080E0DF91CF9158
:101EA0001F910F910895FC010396928381832FEF78
:101EB0003FEF3483238396838583908787831082C3
:101EC0000895FC01118610860895CF93DF939C013D
:101ED000FB01DC011196CD91DC911297D383C28373
:101EE0008C819D81958384838C819D81DC011396F7
:101EF0007C936E9312977D836C8331872087F901E1
:101F000080818F5F8083DF91CF9108950F931F931E
:101F1000CF93DF938C01FB01808191818F3F2FEF65
:101F2000920721F4E801AF81B8850EC0D80113965D
:101F300012962D913C911397E9014881598184179C
:101F4000950710F0D901F4CF12968D919C911397BB
:101F500093838283EC01FD83EC83B583A483139682
:101F6000FC93EE93129711870087F80180818F5FB1
:101F70008083DF91CF911F910F910895CF93DF93CD
:101F8000FC01A085B1858281938124813581EC019A
:101F90003D832C83C481D5819B838A8311968D9147
:101FA0009C911297E817F90721F41296DC93CE93CF
:101FB0001197118610868C9181508C938C91DF91B2
:101FC000CF910895CF92DF92EF92FF921F93CF931C
:101FD000DF936C01162FF42E8AE190E00E94A81185
:101FE000EC01892B09F457C080918B0190918C01F1
:101FF000892B21F5D0938C01C0938B0183EB91E069
:102000000E94530F8CEB91E00E94530F8AEA91E0FB
:102010000E94530F81EA91E00E94530F84E991E0FE
:102020000E94530F8AEA91E09093A00180939F0150
:1020300081EA91E090939E0180939D01111111E03E
:10204000198E188E1E8BFF8AFE01C192D1927F01DC
:10205000CF010E94610FCE010C960E94610FD987BB
:10206000C887DB8BCA8B82E090E0811B91099D873A
:102070008C878E8990919301981710F48093930127
:10208000F9E08F9FC0011124B7018D549E4F0E942B
:10209000650F81E001C08FEFDF91CF911F91FF901D
:1020A000EF90DF90CF9008950F931F93CF93DF931E
:1020B0008B01C0919101D0919201C80FD91F8091DD
:1020C0008B0190918C0102960E94BE0FE0918B01D2
:1020D000F0918C01D383C283809191019091920100
:1020E000BF016E5F7F4FC817D90728F480919D010B
:1020F00090919E0104C080919F019091A0010E9447
:10210000860F0115110569F060918B0170918C01AA
:10211000645F7F4FC801DF91CF911F910F910C94A5
:10212000860FDF91CF911F910F910895FF920F932A
:102130001F93CF93DF9399E0F92E80919401882328
:1021400011F1F894E0919901F0919A01C681D7813B
:10215000CE010C960E94BE0F78948E010E5F1F4F29
:10216000C8010E94BE0F8E8990919301981710F4B8
:1021700080939301F89EC0011124B8018D549E4FA5
:102180000E94650FDACF0E94CA0320918F0130911F
:102190009001821B930B90938E0180938D0189E0B7
:1021A000F82E20918D0130918E01809191019091B6
:1021B00092012115310509F454C0019690939201C2
:1021C000809391012150310930938E0120938D012C
:1021D000892B09F03EC080919F019091A001209130
:1021E0009D0130919E013093A00120939F01909317
:1021F0009E0180939D012DC00580F681E02DC68152
:10220000D7812A813B81809191019091920182171F
:10221000930738F2F8948E010E5F1F4FC8010E9499
:10222000BE0F8C899D89892B21F0CE010C960E94CE
:10223000BE0F78948E8990919301981710F4809333
:102240009301F89EC0011124B8018D549E4F0E9445
:10225000650FE0919F01F091A00180818111CCCFA9
:10226000A0CF9093900180938F018091930169E0BA
:10227000482F50E0649F9001659F300D1124F901B3
:10228000ED54FE4F908191110CC0811108C0109245
:102290009301DF91CF911F910F91FF90089581508D
:1022A000E7CF80939301A181B28112960D90BC91EA
:1022B000A02DB283A1832A543E4FA217B30731F455
:1022C00012968D919C9113979283818389E0849FCC
:1022D000F001859FF00D1124ED54FE4F0180F28135
:1022E000E02D8681978190938C0180938B01DC0196
:1022F000ED91FC91119757966C91DF91CF911F91C1
:102300000F91FF9009940F931F93CF93DF93DC01FC
:102310001596ED91FC911697C681D7818E01045FC9
:102320001F4FC8010E94BE0FB80184E991E00E94CE
:10233000650FE0918B01F0918C0181E02E899689E7
:10234000291708F480E0DF91CF911F910F91089534
:10235000CF93DF93EC010E94C4038091C50190915B
:10236000C601892B31F48AEC91E09093C6018093E9
:10237000C5012091C7013091C801C9018C0F9D1F73
:102380008B3D45E0940770F42817390758F4C09145
:10239000C501D091C601C20FD31F9093C80180938D
:1023A000C70102C0C0E0D0E00E949004CE01DF91DE
:1023B000CF91089508951092C8011092C701089511
:1023C0002091C7013091C8018BED95E0821B930BE2
:1023D000089531E1FC013083319722E22083319767
:1023E000A3E3A08331976083319770833197108284
:1023F000319760E8608331971082319762E06083A3
:10240000319763E06083319764E06083319765E0E2
:102410006083319766E06083319767E0608331972E
:1024200068E06083319769E06083319760E16083A1
:1024300031973083319732E13083319733E1308304
:10244000319734E13083319735E13083319736E18C
:102450003083319737E13083319738E130833197DA
:1024600039E13083319730E23083319731E2308384
:1024700031972083319723E220833197408331972E
:102480005083319726E22083319727E220833197CA
:1024900028E22083319729E22083319720E32083AB
:1024A000319721E320838697089589EF90E09093F8
:1024B000890080938800E0E8F0E080818C7F808351
:1024C0008BE080938100EFE6F0E080818260808382
:1024D000A0912501B0912601CD91CDBFDD91DEBF48
:1024E000FF91EF91DF91CF91BF91AF919F918F912C
:1024F0007F916F915F914F913F912F911F910F911C
:10250000FF90EF90DF90CF90BF90AF909F908F9013
:102510007F906F905F904F903F902F901F900F9003
:102520000FBE0F90089581E0089508950F920FB6A1
:10253000F8940F921F9211242F923F924F925F9224
:102540006F927F928F929F92AF92BF92CF92DF92C3
:10255000EF92FF920F931F932F933F934F935F93AD
:102560006F937F938F939F93AF93BF93CF93DF939B
:10257000EF93FF93A0912501B09126010DB60D9226
:102580000EB60D920E944C05A0912501B091260136
:10259000CD91CDBFDD91DEBFFF91EF91DF91CF9166
:1025A000BF91AF919F918F917F916F915F914F916B
:1025B0003F912F911F910F91FF90EF90DF90CF905F
:1025C000BF90AF909F908F907F906F905F904F9053
:1025D0003F902F901F900F900FBE0F9008950F9275
:1025E0000FB6F8940F921F9211242F923F924F92A0
:1025F0005F926F927F928F929F92AF92BF92CF9293
:10260000DF92EF92FF920F931F932F933F934F937D
:102610005F936F937F938F939F93AF93BF93CF936A
:10262000DF93EF93FF93A0912501B09126010DB6A2
:102630000D920EB60D920E94E40381110E944C058A
:10264000A0912501B0912601CD91CDBFDD91DEBFD6
:10265000FF91EF91DF91CF91BF91AF919F918F91BA
:102660007F916F915F914F913F912F911F910F91AA
:10267000FF90EF90DF90CF90BF90AF909F908F90A2
:102680007F906F905F904F903F902F901F900F9092
:102690000FBE0F9008950E94EF121895CF93C82F88
:1026A0008091C00085FD03C00E949612F9CFC093AF
:1026B000C60080E090E0CF9108958091C00087FD32
:1026C00003C00E949612F9CF8091C60090E0089551
:1026D0001092C50087E68093C400E0ECF0E08081B2
:1026E0008D7F808386E08093C20088E18093C10063
:1026F0000895EF92FF920F93CF93DF9300D000D015
:1027000000D0CDB7DEB70E945300789481E00E94DC
:10271000B90B9093A6078093A50781E00E94B90B9F
:102720009093A8078093A7076FEF7FEF8091A5078D
:102730009091A6070E94B70CCE0105967C0101E09E
:1027400020E030E045E550E060E171E088E790E0AE
:102750000E94AE01CE0103967C0121E030E045E508
:1027600050E065E171E088E790E00E94AE01CE01A3
:1027700001967C0122E030E045E550E06AE171E03D
:1027800088E790E00E94AE010E94950380E090E00F
:1027900026960FB6F894DEBF0FBECDBFDF91CF9166
:1027A0000F91FF90EF900895FB01DC0102C00190B2
:1027B0000D9241505040D8F708954532510520F40C
:1027C000423010F00C94E813FB011082CB01089505
:1027D000BB27FB015527AA27880F991FAA1FA417FB
:1027E00010F0A41B83955051B9F7A05DAA3308F0EF
:1027F000A95DA193009779F7B111B1931192CB0123
:102800000C946E140F931F93CF93DF93FB012381DE
:1028100021FD03C08FEF9FEF2CC022FF16C0468121
:102820005781248135814217530744F4A081B18137
:102830009D012F5F3F4F318320838C932681378109
:102840002F5F3F4F3783268314C08B01EC01FB01C0
:102850000084F185E02D0995892BE1F6D8011696C3
:102860008D919C911797019617969C938E9316972E
:10287000CE01DF91CF911F910F9108950F931F9378
:10288000CF93DF93E091AB07F091AC07238121FF59
:102890001BC08C01D0E0C0E0F80181918F016091F4
:1028A000AB077091AC07DB011896ED91FC9119977D
:1028B000882331F00995892B79F3DFEFCFEFECCF47
:1028C0008AE00995892B19F08FEF9FEF02C08D2FB9
:1028D0009C2FDF91CF911F910F910895DC01FC0196
:1028E000672F71917723E1F7329704C07C916D9344
:1028F00070836291AE17BF07C8F30895F894FFCFB5
:1029000000000003000000004E135D1300000D00E6
:102910006164633000616463310061646332004963
:04292000444C4500DE
:00000001FF
