S00B00007A61642E73726563DA
S11300000C9434000C9446000C9446000C94460066
S11300100C9446000C9446000C9446000C94460044
S11300200C9446000C9446000C9446000C94460034
S11300300C9446000C9446000C9446000C94460024
S11300400C9446000C9446000C9446000C94460014
S11300500C9446000C9446000C9446000C94460004
S11300600C9446000C94460011241FBECFEFD8E038
S1130070DEBFCDBF21E0A0E0B1E001C01D92AB30F6
S1130080B207E1F70E9448000C94B3000C940000FE
S11300908091C100877E8093C1008AB18FEF8AB9B5
S11300A097B187B98FE38093000186E080930101C3
S11300B08BE5809302018FE48093030186E68093AD
S11300C004018DE6809305018DE78093060187E0A6
S11300D0809307018FE7809308018FE680930901DD
S11300E010920A01A0E060E0EAE05FEF41E092E0F4
S11300F07DECB0E0F0E02AEF30E0A050BF4FE050DC
S1130100FF4F5BB948B98C9180958BB9CFE3DFE1A0
S11301102197F1F700C0000098B9808180958BB9D0
S1130120CFE3DFE12197F1F700C00000215031094E
S113013041F76F5F6C3399F0679FE12D1124AE2F67
S1130140A695A695A695862F2AE0A29F801911242C
S1130150A82FE695E695E69561F6EAE0CACFA0E019
S10D016060E0EAE0C6CFF894FFCF98
S9030000FC
